:020000040001F9
:10800000F83D0020F58001000F8101001181010081
:108010000000000000000000000000000000000060
:1080200000000000000000000000000013810100BB
:108030000000000000000000158101001781010010
:1080400019810100198101000D8C010019810100C5
:108050001981010000000000B986010019810100AA
:1080600019810100198101001981010019810100A4
:108070001981010019810100198101001981010094
:1080800019810100A18A01001981010019810100F3
:10809000DB8A010019810100E58A010019810100D4
:1080A000198101001981010000000000000000009A
:1080B00000000000000000000000000000000000C0
:1080C0000348854600F0EAF800480047A9D00100BF
:1080D000F83D0020401E00BF00BF00BF00BF00BF32
:1080E00000BF00BF00BF00BF00BF00BF00BFF1D195
:1080F000704700000321094802680A4302600848EB
:1081000002680A4302600748804707480047FEE7C5
:10811000FEE7FEE7FEE7FEE7FEE70000240500407D
:1081200054050040A98B0100C180010030B50B4609
:10813000014600202022012409E00D46D5409D4241
:1081400005D31D469540491B2546954040191546C7
:10815000521E002DF1DC30BD70B5002425460028EC
:1081600001DA01244042002901DA01254942FFF7E2
:10817000DDFFAC4200D04042002C00D0494270BD2F
:10818000F8B500242546002904DA0E460124002112
:108190004042B141002B04DA1E4600235242012521
:1081A000B34100F04BF88C4617461E46AC4203D054
:1081B000002540428D41AC46002C02D0002657429B
:1081C0009E4161463A46334601B0F0BD03460B433B
:1081D0009B0703D009E008C9121F08C0042AFAD27D
:1081E00003E00B780370401C491C521EF9D2704703
:1081F000D2B201E00270401C491EFBD2704700223F
:10820000F6E710B513460A4604461946FFF7F0FF95
:10821000204610BD421C0178401C0029FBD1801A69
:10822000704730B504460020034600E05B1C9342D3
:1082300003D2E05CCD5C401BF8D030BDF0B51FB47C
:108240000646002082B005464024019100901BE0C4
:10825000019922460F46304600F042F8049A059BE9
:10826000801A994110D310461946224600F028F88A
:10827000361A8F410197224601200021009F00F00D
:108280001FF838184D4100902046641E0028DFDC9E
:10829000019B00982946324607B0F0BD064C0125E7
:1082A000064E05E0E36807CC2B430C3C984710349E
:1082B000B442F7D3FFF708FF88000200A8000200CD
:1082C00010B5202A04DB0146203A9140002010BD61
:1082D000914020239C1A0346E3401943904010BD6F
:1082E00010B5202A04DB0846203AD040002110BDFA
:1082F0000B46D340D0402024A21A9140084319468F
:1083000010BD70B58C180578401C6B075B0F01D150
:108310000378401C2A1106D10278401C03E006783D
:108320000E70401C491C5B1EF9D12B0705D400239D
:10833000521E0DD40B70491CFAE70378401CCB1A6F
:10834000921C03E01D780D70491C5B1C521EF9D570
:10835000A142D8D3002070BDF8B504460F4615469B
:10836000BC4204D02A4639462046FFF72FFF284654
:10837000103824182E0904E0204600F04FF9761E2C
:10838000103C002EF8D1F8BDFFB587B007460E4669
:10839000144625462009401C04012807000F10211F
:1083A000081A0590B74204D02A4639463046FFF7EE
:1083B0000DFF102101A8059AFFF71AFFA54204D26C
:1083C000621B701901A9FFF701FFA54204D17019C2
:1083D000102201A9FFF7FAFE2009069007E03046B7
:1083E00000F044F90A960698401E0690103606984A
:1083F0000028F4D120460BB0F0BD0000F8B50646C9
:108400001CA000680090102231461B48FFF7DEFEDA
:10841000194D103504242AE0291F04222846FFF7AD
:10842000D5FE2046E117890F091889108900611AC5
:1084300013D1284600F048FB00220421284600F012
:108440009DFB04226946284600F030FC6946087806
:1084500000F0F8F96946087000E000BF29461039BD
:108460000422284600F022FC2D1D601CC4B22C2CD6
:10847000D2DBF8BD010000006C290020F3B50C46EA
:10848000214600BF0E78491C304DAD5D3F2DF9DD12
:108490000D1B6B1EDD1CEE17B60F7619B61077009C
:1084A000F019009A21461FE00D78284E755DAD0049
:1084B0004E78264FBE5D361135431570521C4D78EF
:1084C0003E46755D2D018E78BE5DB6103543157044
:1084D000521C8D783E46755DAD01CE78BE5D35434C
:1084E0001570521C091D1B1F042BDDDC012B0ADD3E
:1084F0000D78164E755DAD004E78144FBE5D361189
:1085000035431570521C022B0ADD4D780F4E755DF8
:108510002D018E780D4FBE5DB61035431570521C7F
:10852000032B09DD8D78094E755DAD01CE78074FBF
:10853000BE5D35431570521C00251570521C042574
:10854000ED1AAD07AD0F401BFCBD0000B6FD0100EC
:10855000F0B505460B4614462946002228E0985CF3
:1085600080102D4E305C0870491C985C8007800E8E
:10857000561C9E5DF0273E4036113043264E305C3F
:108580000870491C501C185C0007800E961C9E5DEC
:10859000C0273E40B61130431F4E305C0870491C66
:1085A000901C185C8006800E305C0870491CD21C40
:1085B000A01E9042D3DCA24229DA985C8010164EAD
:1085C000305C0870491C601E904209D1985C80079D
:1085D000800E305C0870491C3D200870491C13E077
:1085E000985C8007800E561C9E5DF0273E40361139
:1085F0003043094E305C0870491C501C185C000761
:10860000800E305C0870491C3D200870491C002019
:108610000870491C481BF0BDB6FE010070B5054648
:1086200010221149284600F041FB0A2419E00121DB
:10863000284600F075FA01221021284600F09EFA23
:10864000601E0001084AA03A81181022284600F056
:108650002DFB012C03D00121284600F00BF9601EF0
:10866000C4B2002CE3DC70BD0C2A002070B50546B6
:1086700010221049284600F019FB012417E00022BF
:108680001021284600F07AFA0021284600F048FA26
:108690000A2C03D00021284600F0ECF82001054AFE
:1086A00081181022284600F001FB601CC4B20A2C7D
:1086B000E5DD70BD6C290020F0B587B000260020F4
:1086C0000690FF20013005900125002416E0059852
:1086D00005F096FB00280BD000BF564840682840A4
:1086E000002805D0059805F083FB30462843064650
:1086F0006D000598001D80B20590641C042CE6D323
:10870000FF207D3005F07CFB00280AD0FF207D3063
:1087100005F06EFB0120C007064300BF4648006914
:1087200006903007000F00282AD00125002425E0FC
:108730002846304000281FD000BF40485121090181
:108740004018A10040581F2109020840000A049067
:1087500000BF3A48512109014018A10040580321A7
:1087600009040840000C0390204602F033F9074644
:1087700003990498B84700BF6D00641C042CD7D33C
:10878000F00FC007002852D000244EE02C480057BC
:10879000401C002848D02A48005D0490C02104985D
:1087A00088430746384602F01DF9029002F012F99C
:1087B00003900398002836D0C02104980840801107
:1087C00002900120B840054600BF052000070721A0
:1087D00009024018B9004058032109040840000C60
:1087E000019006982840002802D00198022806D05F
:1087F00006982840002815D10198032812D1029824
:1088000003280BD10198022801D1032000E00220A7
:1088100000903846009905F073FA00BF3846039A75
:108820000299904700BF00BF641C052CAED307B06F
:10883000F0BD0000006300400005005000600040F3
:10884000E82C002080210140002902D14106080EB9
:1088500003E041001B225140C8B2704710B503220B
:108860001146012005F034FA032211460B2005F0D1
:108870002FFA10BDF3B583B004460020029073E0D8
:10888000207861784840A1784840E1784840054622
:108890002178627851400846FFF7D4FF217869407B
:1088A0004840694608716178A27851400846FFF750
:1088B000C9FF61786940414068464171A178E2781A
:1088C00051400846FFF7BEFFA17869404140684625
:1088D0008171E178227851400846FFF7B3FFE178D3
:1088E000694048406946C8710498002832D0217810
:1088F000A27851400846FFF7A5FF0090FFF7A2FFBE
:1089000006466178E27851400846FFF79BFF0090E9
:10891000FFF798FF0746314679400846FFF792FF78
:108920000546684600792946714041406846017114
:10893000407929467940414068464171807929460D
:108940007140414068468171C0792946794048406C
:108950006946C871042201A92046FFF737FC029836
:10896000401CC0B20290241D0298042888DB05B088
:10897000F0BD0000C206D20E01219140014A1160F3
:108980007047000080E200E0C206D20E0121914053
:10899000014A11607047000000E100E0C206D20EFB
:1089A00001219140014A11607047000000E200E09F
:1089B00010B5002819DA1A4A03071B0F083B9B0859
:1089C0009B00D2588307DC0EFF23A3409A438B07FA
:1089D0001B0E8407E40EA3401A43114B0407240F17
:1089E000083CA408A4001A5118E00E4A03231B02F5
:1089F000D21883089B00D2588307DC0EFF23A340C4
:108A00009A438B071B0E8407E40EA3401A43054BC1
:108A1000032424021B198408A4001A5110BD00006D
:108A20001CED00E000E100E010B5002819DA1A4A58
:108A300003071B0F083B9B089B00D2588307DC0EE3
:108A4000FF23A3409A438B071B0E8407E40EA34029
:108A50001A43114B0407240F083CA408A4001A5120
:108A600018E00E4A03231B02D21883089B00D25839
:108A70008307DC0EFF23A3409A438B071B0E84075A
:108A8000E40EA3401A43054B032424021B19840857
:108A9000A4001A5110BD00001CED00E000E100E050
:108AA00010B5002007490860002106484160816038
:108AB000C1600020034940390860486006F078FE34
:108AC00010BD0000401101400178427802708278A8
:108AD0004270C2788270C170704710B506F02CFCED
:108AE00010BD000070B50C480068002811D00A487D
:108AF00000688047044600BF2546002D07D000BF10
:108B0000064AFF212A31284600F02CFC00BF00BF96
:108B100001E003F017FE70BD70220020300002005B
:108B2000F8B502460C46012125E0002006E083004E
:108B30005B18D35C6E463354431CD8B20428F6DB72
:108B4000002C02D004235B1A00E00B46DDB20020AB
:108B50000DE04319DE17B60FF618B610B6009E1BCF
:108B60006F46BE5D87007F18D655431CD8B20428D7
:108B7000EFDB4B1CD9B20429D7DBF8BD30B5034677
:108B8000002A01D0064D00E0064D2C46002004E0EE
:108B90001D5C655D1D54451CE8B28842F8DB30BDA4
:108BA000B6FC0100B6FB010010B503F059FE002829
:108BB00005D0104810494860C8131049886103F077
:108BC00033FE002802D001200D49886003F0AAFE80
:108BD00000280ED00B480068012807D00A48094930
:108BE000086000BF074800680128FBD1C020054984
:108BF000486110BDDFFF07C000050040006C004069
:108C00000006004000EC0640759300001CB52348A8
:108C10008068002822D00020204988602048806990
:108C2000C1B2204800F0DFFB0446002C08D0012030
:108C300069460870019468461B49096888470CE03A
:108C4000184803F0B1F9012807D1002069460870DF
:108C5000684615490968884700BF00BF0F48C069CA
:108C6000002805D000200D49C861032005F01CFA3A
:108C70000A48406A00280FD0002008494862084886
:108C800080380468046002206946087001946846D0
:108C900005490968884700BF1CBD0000002100404D
:108CA00000250040D42D00202822002030B50346A6
:108CB000002005E01C5C0D5C6C401C54441CE0B2C0
:108CC0009042F7DB30BD00000FB410B503A9044B90
:108CD000044A029800F03AF810BC08BC04B01847E7
:108CE00035C20100682200200FB410B504A9074B5B
:108CF00002AA039800F02AF8044602A9002000F016
:108D000093F9204610BC08BC04B018472990010014
:108D100030B47446641E2578641CAB4204D3635D92
:108D20005B00E31830BC18471D46F8E702E008C8AE
:108D3000121F08C1002AFAD170477047002001E0D5
:108D400001C1121F002AFBD170470000FFB58FB090
:108D50000F460446002606E025280AD0129A1199EB
:108D60009047641C761C20780028F5D1304613B05B
:108D7000F0BD00250121A14A009500E00543641CD7
:108D800023780846203B98401042F7D120782E28BF
:108D900015D1042005436078641C2A280AD101CF2C
:108DA000641C00900BE000990A22514330394018AE
:108DB000641C00902078014630390929F3D92078C5
:108DC0006C280ED004DC4C2813D06A2812D104E0A1
:108DD00074280ED07A280DD10BE001204005054300
:108DE00007E00121090562780D43824201D16D1827
:108DF000641C641C2078864669284AD008DC002858
:108E0000B4D058286DD0632810D0642808D140E031
:108E100070286BD0732812D0752860D0782860D065
:108E2000129A704611999047761CE5E038786946A9
:108E300008720020487202A80190012003E03868FF
:108E400001900020C0433F1D69070CD5002500E0BC
:108E50006D1C00998D420FDA8542F9DB0199495D5D
:108E60000029F5D108E0002500E06D1C8542FCDBFF
:108E70000199495D0029F8D1761907E00198019917
:108E80000078491C0191129A119990476D1EF5D2F4
:108E9000B2E00A20029000216802400F03910228EC
:108EA0000CD001CFC117844600290DDA624608466E
:108EB00052420021814194462D2008E0FF1DFF0809
:108EC000FF0003CF8446EFE7280504D52B206A4630
:108ED000107401203CE0E8073AD02020F7E70A2090
:108EE00000E0102000210391029007E01020029082
:108EF0000021042005430820039100906802400FE0
:108F0000022810D001CF0021844600200D902807B0
:108F10001FD5704670280CD0029A1020039B424047
:108F20001A430CD015E0FF1DFF08FF0003CF844655
:108F3000EBE740206A46107401200D900CE060467B
:108F4000084306D030206A461074704650740220E0
:108F50000D907046582804D029A001900DA80E90BD
:108F60000DE02CA0F9E76046039B029AFFF766F933
:108F7000019B84469B5C0E9A521E0E9213706046B3
:108F80000843F0D10E9805A9081A2030019068070F
:108F900001D5009801E0012000900199884203DD8D
:108FA00001460198081A00E000200025009006E024
:108FB00004A8129A405D119990476D1C761C0D987B
:108FC0008542F5DB04E0129A302011999047761C17
:108FD0000099481E00900029F5DC08E00E980E99D3
:108FE0000078491C0E91129A11999047761C0199AC
:108FF000481E01900029F1DC641CB4E60928010038
:1090000030313233343536373839616263646566FE
:1090100000000000303132333435363738394142C0
:1090200043444546000000000A68531C0B60107062
:109030007047000010B5054802F0B6FF002802D0C6
:1090400000F006F801E000F02DF810BDE42D00203E
:1090500008B50F480078022802D001200D49886029
:1090600069460D4800F0AAF9002802D000F01AF86D
:1090700008BD802009498860684600780849C861B1
:1090800002200349087080200449486000BFEFE7D0
:109090002C22002000200040E42D0020002300406E
:1090A000002500401CB501200549C860054908702D
:1090B00003206946087068460349096888471CBD53
:1090C000002000402C2200202822002000200549FA
:1090D000087001200449C860486000200349086006
:1090E000704700002C220020002000400025004096
:1090F00002200B4948600846406808210843084997
:1091000048600846406860210843054948600846B1
:109110004068C9130843024948600120086070474D
:1091200000750040F8B504460F461546002600209D
:1091300028702078002809D02A463946204604F0B5
:109140004BFD0646002E01D03046F8BDA078002821
:1091500008D02946384600F09DFA0646002E01D078
:109160003046F2E7E07800280ED002212A78501C21
:109170002870B95401212A78501C2870B954E1781C
:109180002A78501C2870B954606800280BD0002041
:10919000616808562A46394606F098FB0646002EB6
:1091A00001D03046D1E7208900280CDD3B4606225D
:1091B000022120460830009506F02FFC0646002EBE
:1091C00001D03046C1E7208A00280CDD3B4607224B
:1091D000032120461030009506F01FFC0646002EA5
:1091E00001D03046B1E7208B00280CDD3B4615222C
:1091F000142120461830009506F00FFC0646002E7C
:1092000001D03046A1E7206A002809D02A46394615
:10921000206A01F0D9FD0646002E01D0304694E7C1
:10922000606A002809D02A463946606A04F062FB69
:109230000646002E01D0304687E72C20005D00282E
:1092400009DD2A463946204605F040FD0646002E37
:1092500001D0304679E7304677E70146C8780422E6
:109260001040002801D1072070470020FCE710B50E
:1092700001220221002001F0F7F8044600BF002C73
:1092800003D0072C01D0204610BD00BF07220221C9
:10929000012001F0E9F8044600BF002C03D0072CA0
:1092A00001D02046F0E700BF0A220021084601F065
:1092B000DBF8044600BF002C03D0072C01D0204669
:1092C000E2E700BF0020DFE730B599B01D490C91FF
:1092D0000621684681851C49018530210DA8FEF7CD
:1092E0008EFF022108A80175012181750621C17533
:1092F000012110A88180154912910AA816902421F5
:1093000001A8FEF77CFF0121684601741920800145
:109310000590002006900E4B01AA014600900DA872
:1093200000F03EFA044600BF2546002D07D000BFDE
:1093300008A25321C900284600F014F800BF00BF5E
:1093400019B030BD3D2100204A5300000821002003
:1093500019DE01002E2E5C2E2E5C2E2E5C6D6169B6
:109360006E2E6300F8B504460D4616460C2001F03B
:10937000A9F8012100916846007806480460064873
:1093800005600648066072B600BF6846007800288F
:10939000FBD1F8BD302200203422002038220020EA
:1093A000F8B504460D461646034807683246294676
:1093B0002046B847F8BD0000802C002070B5044658
:1093C0000D46204602F0F5FD00280AD0A068A188CD
:1093D00008402168085C2870A068401CA06000203C
:1093E00070BD0520FCE770B504460D46204602F02E
:1093F000E0FDA188884209D8E068A188084021687A
:109400000D54E068401CE060002070BD0420FCE7C3
:10941000F8B505460C4627780C21A0684843064954
:109420000E580648006800902A4639462046083003
:109430002369B047F8BD0000BC2D00201C2200208D
:1094400010B504460648007814225043044A121D01
:1094500081182046FFF7DCFF042005F0D5FC10BD85
:10946000F02C002070B503460C461948006800280F
:1094700001D1082070BD002A01D10720FAE7002B96
:1094800001D10720F6E700211CE024204843104DBD
:109490002D68285C002814D10125242048430C4E57
:1094A0003668355424204843094D2D6840194470CE
:1094B00024204843064D2D68401982611960002020
:1094C000D8E7491C034800788142DEDB0420D1E75D
:1094D000402200203C220020FFB581B00E461746F6
:1094E0001C4620468107890F002901D1012100E097
:1094F0000021002902D1072005B0F0BD002C01D1C8
:109500000720F9E705F074FB26490A980860264809
:1095100006702648046000250CE0002124206843E2
:10952000224A1268115424206843204A1268801885
:1095300001756D1CB542F0DB242070430419032033
:109540001B4908701B480460183400250CE0E90032
:10955000184A1268881800210170417087704460B1
:10956000182179430C196D1C032DF0DB0020C0433A
:109570001149086000201149087011490870142031
:10958000FFF7F8F903211420FFF74EFA1420FFF734
:10959000FBF9019805F002FB05F0FAFA09490860A9
:1095A0000020A9E7602200203C2200204022002069
:1095B00044220020482200204C2200205C2200206F
:1095C0005D22002050220020FEB504460D461646BE
:1095D00016480068002801D10820FEBD1448007814
:1095E000844201D2052D01D20720F6E724206043F2
:1095F0000E490968085C012801D00820EDE7242005
:1096000060430A49096840184078012801D128467A
:1096100000E00020074606F0D7F93B462A462146DF
:109620000096019005F08EFFD7E700004022002051
:109630003C22002070B504460D480068002801D186
:10964000082070BD0B480078844201D30720F8E75A
:109650002420604306490968085C012801D00820DD
:10966000EFE706F0B1F90546214605F095FFE8E77A
:10967000402200203C22002070B5044621460448C8
:10968000FFF7B1FE0546022004F00EFD284670BD2E
:10969000E42D0020F8B505460C462078001D1F2853
:1096A00001DD0C20F8BD684679DF0646002E01D0AA
:1096B0003046F7E703212278501C2070A954192165
:1096C0002278501C2070A9542078411968460088DF
:1096D00006F014F92178401820700020E2E700001D
:1096E00070B5002209490A480068FFF76DFF04467B
:1096F00000BF2546002D07D000BF06A2FF21AE31D6
:109700002846FFF72FFE00BF00BF70BDCD0C000044
:10971000382100202E2E5C2E2E5C2E2E5C6D616971
:109720006E2E6300F3B593B00D4600211291119196
:109730001398002814D01398FFF78FFD0446002CCF
:1097400002D0204615B0F0BD12AA09A91398FFF760
:10975000E9FC0446002C01D02046F3E709AE00E006
:109760000026002D13D0284605F0AEFB0446002C41
:1097700001D02046E6E711AA01A92846FFF7D2FC4E
:109780000446002C01D02046DCE701AF00E00027B2
:1097900010A803793A46017A304672DFD2E700001A
:1097A000F8B504460F4615461E46002C01D0002D84
:1097B00001D10E20F8BD00204849087048480660D5
:1097C000484906980860242229464748FEF7FEFCCF
:1097D00000F04CF945484649086046488860302109
:1097E0004548FEF70CFD207843490870A078887042
:1097F000E078C87060784870626920694A610861E1
:109800000846E268A168C2608160E269A169C2613C
:109810008161606A00281BD038483749486238495E
:109820008160606A00883449496A0880606A80887B
:109830003149496A8880002005E0616A8968095CCD
:109840002F4A1154401C2C49496A89888142F4D816
:10985000A06A002824D02B492B48816026498862C1
:1098600028492548806A8160A06A80882249896ADF
:109870008880A06A00882049896A0880002005E065
:10988000A16A8968095C1F4A1154401C1A49896AF7
:1098900089888142F4D82C20015D1748203001735B
:1098A000206A00280BD0194813490862206A4088B2
:1098B000096A4880206A00880F49096A0880606840
:1098C000002804D012480C49486060684860394656
:1098D0000948FFF727FF009000986BE7C0210020A0
:1098E000B8210020BC2100206C2A0020A02A0020E2
:1098F000902A0020C02A00203C2A0020E02A0020D4
:10990000EC2A0020182B00200C2B0020C421002062
:10991000C821002070B504462088102804D01128E2
:1099200006D0192869D11AE0A0883549088065E079
:10993000002034490870A0883149098888420DD137
:10994000012000F09BF80546002D07D02E48006846
:10995000002803D028462C49096888474EE0A079A2
:10996000002849D129480078012806D0022813D0C0
:10997000032820D004283DD12FE0022000F07EF8FB
:109980000546002D07D020480068002803D028464F
:109990001D49096888472EE0032000F06FF805464E
:1099A000002D07D018480068002803D02846164923
:1099B000096888471FE0032015490870042000F05B
:1099C0005DF80546002D07D00F480068002803D039
:1099D00028460D49096888470DE000200C490870A9
:1099E0000C480068002804D0084600780949096836
:1099F000884700E000BF00BF00E000BF00BF70BDAF
:109A0000CA210020C1210020BC210020C02100204B
:109A1000B4210020B821002070B504460025022C96
:109A200002D0032C18D100E000BF0D4800780028B8
:109A300011D000200A4908700A48007800F01EF88A
:109A40000546002D07D008480068002803D02846A6
:109A500005490968884700E000BF00BF70BD0000ED
:109A6000AC210020C0210020BC21002010B507211E
:109A70000148FEF7C4FB10BDAD21002030B587B012
:109A80000546A248057000200090684604F002FCDC
:109A90000446082C02D10020009004E0002C02D0E3
:109AA000204607B030BD0098002804D00120984916
:109AB00008700020F5E7FFF7D9FF964840780028A6
:109AC00003D092480078012807D092488078002877
:109AD00012D08E48007802280ED18F4800680028E6
:109AE00007D001208D49087008208B4909688847F4
:109AF00002E00020894908708448007801280BD1D1
:109B000084484078002804D0854804F06DFB002884
:109B100002D102207D4908707C48007802280BD1D0
:109B20007C488078002804D07D4804F05DFB002844
:109B300002D10320754908707648007B002806D1C1
:109B400072480078032802D10420704908707148D7
:109B5000007E002808D16D480078042804D1002038
:109B60006A4908706F4908706B480068002817D070
:109B700066480078032803D06448007804280FD191
:109B80006448007800280BD067480078002807D187
:109B900001206649087007205F490968884702E08C
:109BA000002062490870182101A8FEF728FB002157
:109BB00068460171002002906846017300200490FD
:109BC00052480078012806D0022811D0032823D05B
:109BD000042879D150E05248401E02900121684685
:109BE00001710021C182818201204E49087075E017
:109BF0004B48401E0290012168460171454800898A
:109C000081B26846C1824348808881B268468182B9
:109C100002204449087061E03E48808A81B268466B
:109C2000C1823C48008A81B268468182404805F082
:109C3000B7FF00281CD037480078002818D03A48D1
:109C40000078002814D1022069460873384804902F
:109C500004203849C87000213648FFF763FD0446E8
:109C6000002C01D020461CE705202E49087002E098
:109C700003202C49087031E02648808B81B2684669
:109C800081822448008C81B26846C182284805F050
:109C900087FF00281DD01F480078002819D02248CF
:109CA0000078002815D102206946087320480490E6
:109CB00004202049C87000211E48FFF733FD0446E8
:109CC000002C02D02046ECE607E00620154908707B
:109CD00002E004201349087000E000BF00BF0B48F9
:109CE0000078002806D001A873DF0446002C01D0BC
:109CF0002046D6E608480068002804D009480078C5
:109D00000549096888470020CBE60000C0210020F3
:109D1000AC2100206C2A0020B8210020C3210020A3
:109D2000AE210020B4210020C1210020C22100204A
:109D3000902A00203C2A002070B505461C222946A6
:109D40001448FEF743FA00201349087028680028D9
:109D50000BD0082211482968FEF738FA0F487ADF3D
:109D60000446002C08D0204670BD0C487BDF04461A
:109D7000002C01D02046F7E70020C04308490880A6
:109D8000002008490870084A00210848FFF76AFBCC
:109D9000EAE70000382B0020E4210020CC2100203D
:109DA000D6210020D42100202DF90100E02100203F
:109DB00010B504462088102806D0112808D0122893
:109DC0000ED0502810D107E0204604F0CDF80CE06A
:109DD000204604F025F908E0204604F0D7F904E015
:109DE000204604F0B5F800E000BF00BF10BD000041
:109DF00010B504462146094800F0AAFA204601F0B1
:109E000013FB2046FFF7D4FF204600F0EBFA204674
:109E100004F028F82046FFF77DFD10BD94220020B5
:109E20007CB500BF002348222549092005F00CF825
:109E3000054600BF2E46002E07D000BF21A28B2171
:109E400089003046FFF78EFA00BF00BF00BF002038
:109E500000900190012069460870684660DF044662
:109E600000BF2546002D06D000BF16A2194928467E
:109E7000FFF778FA00BF00BF174804F0D9FF044687
:109E800000BF2546002D07D000BF0EA28F218900FC
:109E90002846FFF767FA00BF00BF104805F008F832
:109EA000044600BF2546002D07D000BF05A20921AA
:109EB00089012846FFF756FA00BF00BF7CBD0000AD
:109EC000AC2600202E2E5C2E2E5C2E2E5C6D616941
:109ED0006E2E630037020000F19D010025F20100A3
:109EE00070B50646304600F055F9044600BF2546D9
:109EF000002D07D000BF164AFF2164312846FFF726
:109F000031FA00BF00BF304600F024F8044600BF1D
:109F10002546002D07D000BF0D4AFF216631284697
:109F2000FFF720FA00BF00BF304600F0B1F804464A
:109F300000BF2546002D07D000BF054AFF2168312C
:109F40002846FFF70FFA00BF00BF204670BD000093
:109F500054FF010030B58FB0044648A5002007909B
:109F600000BF6846007F01090901491C6846017766
:109F7000007FF021884310306946087700BF00BF9A
:109F80006846407F01090901491C68464177407FC6
:109F9000F021884310306946487700BF6846807FCB
:109FA00006218843811C684681771C2108A8FEF79A
:109FB00026F908A8007820218843203008A90870D5
:109FC000002009900B900C900D900E9000BF012185
:109FD000684681712D49818000BF0020009000BF3C
:109FE0006846007801090901491C6846017000783B
:109FF000F021884310306946087000BF00BF6846F2
:10A00000407801090901684641704078F021884391
:10A010006946487000BF6846807806218843811CE5
:10A0200068468170807808218843014668468170BF
:10A030008078102188430146684681708078410805
:10A040004900491C68468170142102A8FEF7D7F820
:10A0500001A80290684603902846FEF7DBF881B21B
:10A060006846018200214182142181820695208860
:10A07000A31C02AA08A9A2DF0FB030BD696E6469F3
:10A08000636174652063686172000000C8FE0000AF
:10A0900010B58EB004461C2107A8FEF7B0F869463B
:10A0A000087F02218843801C6946087700200890B9
:10A0B0000A900B900C900D9000BF012168468171B1
:10A0C0002949818000BF0020009000BF68460078C9
:10A0D00001090901491C684601700078F021884394
:10A0E00010306946087000BF00BF6846407801091B
:10A0F0000901491C684641704078F02188431030BE
:10A100006946487000BF6846807806218843811CF4
:10A1100068468170807808218843014668468170CE
:10A120008078102188430146684681708078410814
:10A130004900491C68468170142102A8FEF75FF8A7
:10A1400001A8029068460390062101820021418205
:10A15000142181820548069020882346123302AAE2
:10A1600007A9A2DF0EB010BDC9FE00003D210020EE
:10A1700038B5044600BF012168468170044901805A
:10A1800000BF224669460120A0DF0546284638BDAB
:10A19000E7FE000030B58FB0044639A51C2108A8A1
:10A1A000FEF72DF808A8007808218843411808A870
:10A1B0000170007804218843001D08A90870002060
:10A1C00009900B900C900D900E9000BF01216846F5
:10A1D00081722E49018100BF0020019000BF6846B6
:10A1E000007901090901491C684601710079F021D3
:10A1F000884310306946087100BF00BF6846407947
:10A2000001090901491C684641714079F0218843E0
:10A2100010306946487100BF68468079062188433E
:10A22000811C68468171807908218843014668460F
:10A230008171807910218843014668468171807957
:10A2400041084900491C68468171142103A8FDF7A3
:10A25000D6FF02A8039001A804902846FDF7DAFF74
:10A2600081B2684681820021C18214210183079551
:10A27000208823460A3303AA08A9A2DF0FB030BD05
:10A28000777269746520636861720000C7FE000020
:10A2900070B506460C461546002C01D0002D01D1A4
:10A2A000002070BD0448046001468D800020C880F5
:10A2B000304600F003F8F4E74421002010B586B0E2
:10A2C000044600210191204880881F49C988401A0E
:10A2D00081B2019168468088142801DD142101E0D3
:10A2E0006846818801916846808800280ED1164909
:10A2F000086801F0A7FF0020134908608880C88023
:10A30000012012490870002006B010BD0020029004
:10A310000390049005906188684601810A480068AE
:10A320000949C9884018059001A80490022168468F
:10A3300081720548C1886846808808180249C8802B
:10A34000608B02A9A6DFDFE7442100203C2100202A
:10A3500070B505460C462088102806D0112811D06B
:10A36000502805D0532811D107E0A08868830EE05B
:10A370002146284603F0BEFE09E02146284603F0A8
:10A3800071FE04E00020C043688300E000BF00BF0E
:10A3900070BD00007CB50446A1786A460D4803F004
:10A3A00091FF0546002D13D161781C2251430A4AC2
:10A3B00088181C231A46694604F0C0F80748807ABA
:10A3C000800007490A58214668469047054600BF65
:10A3D0007CBD0000E8210020342C0020802C0020CF
:10A3E00008FF010070B505462888102802D0112802
:10A3F00032D118E01A48006800280ED100F0A8FDFC
:10A40000044600BF002C07D016480068002803D07F
:10A41000204614490968884700BF11480068401C5D
:10A420000F49086019E00E480068401E0C4908609A
:10A430000846006800280ED1FEF719FF044600BF49
:10A44000002C07D007480068002803D020460549A3
:10A450000968884700BF00E000BF00BF70BD000072
:10A46000A8210020A421002030B503460020042BA1
:10A4700024D2012A07D1012903D11C460D34E4B2AC
:10A4800000E00024224600290FD0012902D0022931
:10A4900011D104E05C001C19094D2A550DE05C0047
:10A4A0001C19074D6419627007E05C001C19044D0B
:10A4B0006419A27001E0072000BF00E0072030BD52
:10A4C000302A002070B50446002506480078C007F1
:10A4D000C00F002803D0204600F006F805462846A5
:10A4E00070BD000088210020F8B504460025002634
:10A4F0002300FEF70DFC180D18195C9FF7F5F4F317
:10A50000F2F1F0EFEEEDECEBEAE9E8E7E6E5E4E3A3
:10A5100000BF0B204005FB4988600020C86000BFD9
:10A52000F94804704FE200BF00BF05208005F549DF
:10A5300088600020C86000BF084640680F214905B8
:10A54000484001214905084000280FD000BF0846B7
:10A55000EC4988600020C86000BF022C02D1E120D5
:10A56000C00001E07D20400106460EE000BF012052
:10A570004005E449C8600020886000BF022C01D17A
:10A58000C82001E0FF2091300646DF4804706421B6
:10A590003046FDF7CBFDDD490968484307460022F8
:10A5A0003946DB480068FFF70FF805460BE200BFAD
:10A5B00005208005D34988600020C86000BF084698
:10A5C00040680F21490548400121490508400028FD
:10A5D0000FD000BF0846CB4988600020C86000BF8C
:10A5E000032C02D11920400101E07D2040010646E4
:10A5F0000EE000BF01204005C249C860002088600D
:10A6000000BF032C01D1C82001E0FF209130064695
:10A61000BD48047064213046FDF788FDBB490968D8
:10A620004843074600223946B9480068FEF7CCFF88
:10A630000546C8E100BF05208005B24988600020BA
:10A64000C86000BF084640680F2149054840012105
:10A650004905084000280FD000BF0846A949886076
:10A660000020C86000BF042C02D17D20400101E021
:10A670007D20400106460FE000BF01204005A149B2
:10A68000C8600020886000BF042C02D1FF209130F8
:10A6900001E0FF20913006469B480470642130465B
:10A6A000FDF744FD994909684843074600223946A9
:10A6B00097480068FEF788FF054684E182E176E16D
:10A6C00074E161E14EE13BE12FE1F4E0F2E0F0E022
:10A6D000EEE0ECE0E2E0C9E0B2E099E082E06FE0B9
:10A6E00042E0FFE700BF0520800586498860002022
:10A6F000C86000BF084640680F2149054840012155
:10A700004905084000280ED000BF08467D498860F2
:10A710000020C86000BF052C01D1C82001E07D20C9
:10A72000400106460EE000BF012040057549C860A3
:10A730000020886000BF052C01D1C82001E0FF2067
:10A74000913006467048047064213046FDF7EEFCF7
:10A750006E49096848430746002239466C4800683C
:10A76000FEF732FF05462EE100BF05208005654952
:10A7700088600020C86000BF084640680F21490576
:10A780004840012149050840002806D000BF08467E
:10A790005C4988600020C86007E000BF01204005D8
:10A7A0005849C8600020886000BF57480470574867
:10A7B0000022016856480068FEF706FF054602E1E0
:10A7C00000BF052080054F4988600020C86000BF99
:10A7D00000BF01204005C8600020886000BF4A48D3
:10A7E0000470F0E000BF47494868012189058143B2
:10A7F000444A9160012189050140D16000BF43486E
:10A800000022016842480068FEF7DEFE0546DAE0F5
:10A8100000BF3C494868012189058143394A91605C
:10A82000012189050140D16000BF384800688200DD
:10A830008118002236480068FEF7C6FE0546C2E0D1
:10A8400000BF304948680121890581432D4A916044
:10A85000012189050140D16000BF2C480022016818
:10A860002B480068FEF7B0FE0546ACE000BF254966
:10A870004868012189058143224A916001218905A7
:10A880000140D16000BF2148006882008118002289
:10A890001F480068FEF798FE054694E000BF0F20B1
:10A8A00040051849C8600020886000BF8BE000BFE9
:10A8B00000BF00BF00BF17480068FEF7BBFE05469B
:10A8C0001120061B002E27D0002D25D1012E10D9D6
:10A8D000C821714308466421FDF728FC0B4909682B
:10A8E00048430746002239460A480068FEF76CFED6
:10A8F000054600BF0120C0050249C86000208860ED
:10A9000012E000000005005080210020842100207A
:10A910008C2100209021002000BF0120C0052B4980
:10A9200088600020C86000BF4DE000BF0F204005D8
:10A93000264988600020C86000BF2548047042E0B6
:10A9400000BF07208005214988600020C86000BF43
:10A9500000BF01204005C8600020886000BF1C487F
:10A96000047030E000BF0D204005184988600020C9
:10A97000C86000BF00BF01208005C860002088605B
:10A9800000BF134804701EE000BF0320C0050F493C
:10A9900088600020C86000BF00BF03204005C86079
:10A9A0000020886000BF0A4804700CE000BF00BFB0
:10A9B0000F2040050549C8600020886000BF04489A
:10A9C000047000E000BF00BF2846F8BD000500503D
:10A9D0008021002001468800014A1058704700007D
:10A9E000A42C00200146014840567047C82C002086
:10A9F000F0B587B03E480078142148433C49091D12
:10AA00004418E7680C21A06848433A494018008977
:10AA100006900C21A06848433649401840890590AB
:10AA20000C21A0684843334940184068049003F063
:10AA30003BFD014602903846FDF778FB002901D125
:10AA4000012000E0002003900599069848430499EE
:10AA500046186088C019A18845180020264908605A
:10AA60000398002804D003F01FFD618888420AD0B3
:10AA70000398002804D0B54202D1A088002802D053
:10AA8000A06803280CD103F00FFD01460290384660
:10AA9000FDF74CFB19490860032004F0B5F924E0E8
:10AAA00003F002FD0190A188C8190199FDF73EFB52
:10AAB00088081349086003F0F7FC01460190284616
:10AAC000FDF734FB002901D1012000E000200290B5
:10AAD000B54206D00298002803D1B1B2A8B204F062
:10AAE000BBFB022004F090F900BF07B0F0BD0000EE
:10AAF000F02C0020BC2D00200C2200201022002071
:10AB00000822002010B5084800781421484306495F
:10AB1000091D44182078042802D000F0A5F801E0AF
:10AB200004F00EFB10BD0000F02C002010B50F4803
:10AB30000078142148430D49091D441860880C49C8
:10AB400008602078012804D0032805D0042809D102
:10AB500005E004F0F5FA06E0FFF74AFF03E004F031
:10AB6000D6FE00E000BF00BF10BD0000F02C0020AA
:10AB70001C22002010B503484078002801D0FFF7C0
:10AB8000D5FF10BDF02C00200023142141430C4AB6
:10AB900053541421414389184B800223142141430B
:10ABA00089188B600023142141438918CB6014213C
:10ABB000414389180B611421414389188B807047E8
:10ABC000F42C0020FFB581B0064617461C4840789B
:10ABD0000A2830D01A4800781949497844180A2CB4
:10ABE00000D30A3C142060431549091D0E5414205B
:10ABF000604340180761142060434118029805C85B
:10AC0000CA608860142161430D4A121D8918049896
:10AC100048801421614389180A988880101F407861
:10AC2000401C111F487007480078002801D1FFF729
:10AC30007DFF002500E00425284605B0F0BD00009A
:10AC4000F02C00200422002010B5002005490870D7
:10AC50004870002403E02046FFF796FF641C0A2C8E
:10AC6000F9D310BDF02C002010B50848007814224C
:10AC70005043064A121D81180020FEF7C9FB00F060
:10AC800007F8002004F0C0F810BD0000F02C0020F0
:10AC900010B509490878FFF777FF07484078401E4C
:10ACA0000549487008460078401CC0B208700A2860
:10ACB00001D10020087010BDF02C002010B5024614
:10ACC0000B46002106E0585C545CA04201D00320F2
:10ACD00010BD491C0629F6DB0220F9E7FEB51E4827
:10ACE0000068401C002834D01B48006824214843D9
:10ACF0001A4909684018456803F04AFF019018484E
:10AD000004682146019804F0D3FAC61C154800785F
:10AD1000002801D103F04EFFAE4201D2284600E0E8
:10AD2000304604192402240A20460F49086000BF57
:10AD300003F02EFF00900199009804F0B9FAC71CA7
:10AD40002046019904F0B4FA874201D904F07EFD4F
:10AD500001E003F04DFFFEBD4C2200204022002008
:10AD6000502200206422002040150140014608883E
:10AD7000062808DB08881922D201904205DD0888E0
:10AD8000104A904201D0072070474888062808DB07
:10AD900048881922D201904205DD4888094A90422C
:10ADA00001D00720F0E70888064A904208D048887A
:10ADB000904205D008884A88904201DD0720E3E7E9
:10ADC0000020E1E7FFFF0000F8B506460D461446F7
:10ADD0002078801D1F2801D90C20F8BD3046FFF7D0
:10ADE000C5FF0746002F01D03846F6E70521227837
:10ADF000501C2070A95412212278501C2070A95494
:10AE000022785119308804F079FD2178401820709B
:10AE100022785119708804F071FD21784018207053
:10AE20000020DAE710B5044600BF04A2FF218831F4
:10AE30002046FEF797FA00BF10BD00002E2E5C2EB4
:10AE40002E5C2E2E5C6D61696E2E630030B587B06E
:10AE50001C216846FDF7D3F9002000900520C003AF
:10AE600001900F2000040290032168460173002125
:10AE7000C18101740B4805900B4806906846FEF7A7
:10AE80005BFF044600BF2546002D07D000BF07A288
:10AE9000FF219F312846FEF765FA00BF00BF07B0CB
:10AEA00030BD000009DF010025AE01002E2E5C2E12
:10AEB0002E5C2E2E5C6D61696E2E630038B51F48C6
:10AEC00001F0A0FC002829D11D48007800280AD0F4
:10AED0001C484069002820D0002000901948416992
:10AEE0006846884719E018480078002802D11548BC
:10AEF000456801E013488568002229461348006828
:10AF0000FEF762FB0446002C07D00E48806900283B
:10AF100003D00C488169204688470AE00948406907
:10AF2000002806D0012000900648416968468847FD
:10AF300000BF00200249087038BD0000D821002061
:10AF4000E4210020382B0020D4210020E021002023
:10AF500010B5012200210846FFF786FA044600BF1B
:10AF6000002C03D0072C01D0204610BD00BF0722C3
:10AF700002210120FFF778FA044600BF002C03D01D
:10AF8000072C01D02046F0E700BF04220221002058
:10AF9000FFF76AFA044600BF002C03D0072C01D04B
:10AFA0002046E2E700BF0020DFE7000070B503465F
:10AFB0000C460820002115E00C254D430B4EAD1921
:10AFC000AD7A2540002D0CD0094DAB4205D00C25A3
:10AFD0004D43AD192D899D4202D11160002003E03F
:10AFE0000520491C0029E7D000BF70BD742C00204B
:10AFF000FFFF000010B5044601210C2060430A4AFF
:10B0000080188172891E0C20604380180181FF2105
:10B010000C2060438018C1720C21614388180721FD
:10B02000FDF7EDF810BD0000742C002010B5144899
:10B030004068C105C90D002920D00A46103A50B217
:10B0400000280DDA0E4B1C330407240F083CA4081B
:10B05000A4001B598407E40EE3401B069B0F0BE082
:10B06000084B032424021B198408A4001B598407DD
:10B07000E40EE3401B069B0FD8B210BD0420FCE792
:10B0800000ED00E000E100E010B51C480068082178
:10B09000084000282FD11A480068401C1849086051
:10B0A00018480068002803D0042004F0B1F824E018
:10B0B00001F00CFC002803D0022004F0A9F81CE0E9
:10B0C00011480068002813D00C480078C007C00F52
:10B0D000002809D109480068012108430749086090
:10B0E000002004F095F808E0032004F091F804E053
:10B0F00004F062F801E004F06FF810BD2022002097
:10B1000010220020082200200C22002010B50C483C
:10B1100000680821084000280FD109480068022172
:10B120000840002805D0064800680121084304496A
:10B130000860022004F06CF801E004F04DF810BD46
:10B1400020220020FEB504460E46A1786A46284813
:10B1500003F0B8F80546002D49D160780C2148432A
:10B1600024494018807A40210840402801D0022E0E
:10B1700001D1214F04E0012E01D1204F00E0204FEA
:10B18000A0781C2250431F4A811800231C226846C5
:10B19000B8470546002D1AD1022E18D060780C2130
:10B1A000484314494018807A4021884361780C2232
:10B1B0005143104A8918887260781C225043124A01
:10B1C00081181C231A466846B847054600BF022E60
:10B1D0000DD020780C2148430C494018807A80001B
:10B1E0000B490A58214668469047054600BFFEBDF8
:10B1F000E8210020742C00207DE8010051E70100C7
:10B20000D5F00100702B0020342C0020802C002071
:10B21000F8FE0100F8B505460E461B4F00242EE04F
:10B220001C20604319494018807EFF2826D13078C1
:10B23000022814D01C2060434018807E02218843DD
:10B240001C216143114A891888761C2161438918A1
:10B250000846103007223146FCF7B8FF0BE01C20EF
:10B2600060430A494018807E410849001C20604321
:10B27000064A801881762C70002702E0641C072C97
:10B28000CED300BF3846F8BD43800000702B0020AD
:10B29000F8B505460E4617460520009000241BE031
:10B2A000002D06D11C2060430E494018008BB84287
:10B2B0000DD0002D0FD01C2161430A4A8918084681
:10B2C000103007222946FCF7ACFF002803D1346078
:10B2D0000020009002E0641C072CE1D300BF00981E
:10B2E000F8BD0000702B00207CB50546A9B26A4667
:10B2F000084802F0E7FF0446002C09D17421684693
:10B3000003F032F80446002C02D1284602F07AFFFE
:10B3100020467CBDE8210020F8B506460F461446BD
:10B3200000BF2546002D07D000BF05A2932189004C
:10B330002846FEF717F800BF00BF0020F8BD000048
:10B340002E2E5C2E2E5C2E2E5C6D61696E2E63009F
:10B350007FB50546039503F0ADF8044600BF2646C9
:10B36000002E06D000BF29A22C493046FDF7FAFF77
:10B3700000BF00BF03A800F085FB044600BF2646BF
:10B38000002E07D000BF21A22449C91C3046FDF77A
:10B39000E9FF00BF00BF052101A80130FCF72FFF26
:10B3A0006846407941084900491C68464171407926
:10B3B0000221884301466846417140791C21884337
:10B3C00001460C316846417140792021884301468D
:10B3D00068464171072181711021C17110480090A8
:10B3E00001216846017169460E4800F0F5FC0446EB
:10B3F00000BF2646002E07D000BF04A20749113126
:10B400003046FDF7AFFF00BF00BF7FBD2E2E5C2E84
:10B410002E5C2E2E5C6D61696E2E6300660200004C
:10B4200019B3010000200020F0B58FB00446FF20C2
:10B430000D9000260020079000BFFE4800780028ED
:10B4400001D10FB0F0BD00BF00BFFB48006800286D
:10B4500000D1F6E700BF0CA800F006FB054600BFD0
:10B460002F46002F06D000BFF44AF5493846FDF7B5
:10B4700079FF00BF00BF002008900025201D0A9022
:10B480002A2168468185FF2108A881740021017462
:10B4900000200E902088102813D0A0880EAA022128
:10B4A000FFF784FD0546002D0BD10C210E98484373
:10B4B000E4494018C17A08A881740E98C1B208A85E
:10B4C0004174208817287BD008DC10280DD0112863
:10B4D0007CD0132876D0142875D1B5E0182873D005
:10B4E0001C2872D05228F7D184E20EAF3A460121CF
:10B4F000D548FFF75BFD00900098002807D1022196
:10B500000C2238685043CF4A8018817201E0042031
:10B51000009000980546002D51D10126112108A860
:10B5200001710E98C1B208A84174A1880C220E982E
:10B530005043C44A8018018102210C220E985043C6
:10B54000C04A801881720C220E995143BD4A881856
:10B550000722A11DFCF73AFE207D304000280AD0CA
:10B56000207D4008B949085CFF280AD0207D4008AA
:10B57000085C0D9005E0B44A0DA9A01DFFF788FEF8
:10B580000546002D1BD10D98C1B20C220E985043D8
:10B59000AC4A8018C1720C210E98484311464018DD
:10B5A000807A082108430C220E995143A54A891834
:10B5B000887208A90D9888740CA8FEF7EBFE28E2A3
:10B5C000FAE003E085E023E2B1E11CE20C210E98F1
:10B5D00048439C494018807A022188430C220E99E6
:10B5E0005143984A891888720C210E984843114695
:10B5F0004018807A0821084008280ED10C210E98A6
:10B60000484311464018807A8021084080280FD195
:10B6100000210CA8FFF796FD0AE008A8807CFF280F
:10B6200006D008A9887C02F0EDFDFF2008A98874E7
:10B6300010210C220E985043824A801881720126F4
:10B64000122008A90871E4E10C210E9848437D49B5
:10B650004018C07AFF2823D1E2890DA90020FFF706
:10B6600017FE0546002D1BD10D98C1B20C220E9875
:10B670005043744A8018C1720C210E9848431146F9
:10B680004018807A082108430C220E9951436D4AD4
:10B690008918887208A90D9888740CA8FEF77AFE9C
:10B6A0000C210E98484367494018C07AFF2805D0FE
:10B6B0001C210E9848436649401807901C230E9998
:10B6C0005943644BCA18A0880023079982DF0546B6
:10B6D0009FE1132008A908710C210E98484359498D
:10B6E0004018807A042108430C220E995143554A90
:10B6F0008918887201260C210E984843114640187B
:10B70000C07AFF2819D10C220E9850430A4681189E
:10B710000DA8FFF77FFD0546002D0BD108A90D9858
:10B7200088740D98C1B20C220E985043454A801877
:10B73000C1721DE0089501261AE0162008A90871BB
:10B7400024220E995143444A8918084608301A2188
:10B75000FCF755FD0C210E9848433A494018807A71
:10B76000402108430C220E995143364A89188872A9
:10B77000002004900C210E98484332494018C07AAA
:10B780001C214843334941180591002106911C2191
:10B790000E9848432E4940180190002002900390D3
:10B7A000A08801AB244A121D00217FDF0546002D31
:10B7B00001D0089500262CE11F48407A400840003F
:10B7C0001D4948720C210E9848431E494018807A42
:10B7D000042188430C220E9951431A4A8918887211
:10B7E000142008A908710126A07900280AD00C228B
:10B7F0000E995143134A8918C87AFFF775FDA0794D
:10B80000089093E0E0794007C00F00287ED008A898
:10B81000807CFF287AD00C210E98484309494018B3
:10B82000807A082108430C220E995143054A891851
:10B83000887213E0F4210020802C0020E4FF010036
:10B84000E8090000742C0020FFFF0000F521002013
:10B85000342C0020702B0020502C0020E07A800730
:10B86000C00F00280FD008A8807C1C2148437749CE
:10B870004018807E4108490008A8807C1C22504363
:10B88000724A801881760C210E98484370494018FE
:10B89000C07AFF284AD00C210E9848436C49085CB6
:10B8A000022820D00C230E9A5A430B46D11808AA1E
:10B8B000927C1C235A43654BD21810461030072245
:10B8C000FCF784FC08A8807C1C2148435F49401891
:10B8D000807E0221884308A9897C1C2251435B4A4F
:10B8E000891888761EE01C210E9848435949401853
:10B8F000418A08A8807C1C225043544A8018018346
:10B9000008A8807C1C214843114600E00EE0401846
:10B91000807E4108490008A8807C1C2250434B4A85
:10B920008018817601210CA8FFF70CFC71E0A0794A
:10B93000000901283DD1A0790007000F012838D166
:10B940000C210E98484342494018807A082108404B
:10B9500008282ED124220E9951433F4A89180818ED
:10B960001A21FCF74CFC162008A908710C210E982E
:10B97000484337494018807A202108430C220E9909
:10B980005143334A891888720C210E984843114656
:10B990004018807A402108430C220E9951432C4ACA
:10B9A000891888722D48407A022108432B49487231
:10B9B0001CE00C210E98484325494018807A8021CC
:10B9C00008430C220E995143214A89188872152088
:10B9D00008A908712148807A8000214A11580CA8D2
:10B9E00088470546002D01D01E4808900020089089
:10B9F00001260EE01948807A8000194A11580CA8D7
:10BA00008847089005E0132008A90871012600E086
:10BA100000BF00BF002E16D009A90CA8089AFDF798
:10BA2000BFFC08A8007912280DD100BF0C210E9888
:10BA3000484307494018807A012802D00E98FFF742
:10BA4000D9FA00BF00BF00BFFBE40000702B00204C
:10BA5000742C0020342C0020502C0020802C00203E
:10BA600018FF0100418000000146002901D104486F
:10BA70007047FF20087048708870C8700020F7E792
:10BA80000E8000007FB50646002E02D1374804B074
:10BA900070BD00240FE000BF00210C206043344A39
:10BAA00011500C206043801841720C2060438018B4
:10BAB000817200BF641C002CEDD0002403E02046FE
:10BAC000FFF798FA641C002CF9D024212948FCF7D0
:10BAD00096FB002406E0204602F094FBFF20264956
:10BAE0000855641C072CF6D3742168468181072110
:10BAF000C18122480290224902A802F09DFD05461C
:10BB0000002D30D101201F4908703078002821D144
:10BB100000241CE0A1B26A46194802F0D3FB054696
:10BB2000002D0FD11C216143174A881800231C22C5
:10BB3000694602F003FD0546002D07D0002011499B
:10BB4000087006E000200F49087002E0641C072C12
:10BB5000E0D308E06A469089D289504381B2084810
:10BB600002F002FC0546284691E700000E80000026
:10BB7000802C0020502C0020F52100208DBB0100DE
:10BB8000E8210020F4210020702B0020FFB591B0A7
:10BB90001D4600BF84480068002801D115B0F0BDE3
:10BBA00000BF1A98742800D9F8E7012007900DA863
:10BBB000FFF75AFF064600BF3746002F06D000BFEA
:10BBC0007A4A7B493846FDF7CDFB00BF00BF002114
:10BBD00008A8017501760C951A980B90002712E0C1
:10BBE000B9B208AA734802F06DFB0646002E09D1CF
:10BBF000082208A91198FCF714FB002802D108A913
:10BC00008F7502E07F1C072FEAD300BF08A8807D54
:10BC1000FF2877D0129803280AD11A98742803D1E4
:10BC2000202008A9087698E0402008A9087694E02A
:10BC30006149681A1C21FCF779FA0446072C1DD2C9
:10BC40000AA80F901398002810D108A9887D012117
:10BC500081405A4A12681140002901D0012100E0B8
:10BC60000021002902D10020079076E008A9887DF4
:10BC700003F052FE202008A908766EE05049681AA9
:10BC80001C21FCF753FA0446002C1AD10AA80F9085
:10BC9000202108A8017644750020049049490591A7
:10BCA0001C20604346494018019008A8807D1C2153
:10BCB000484341494018029001A80C9018200B906D
:10BCC0004BE04149681A2421FCF730FA0446002C65
:10BCD00019D1302108A8017644750121C1750C20C5
:10BCE00060433A494018807A02210840022834D043
:10BCF00008A9497D24225143334A88182421FCF79E
:10BD00007EFA2AE04DE000200790402008A908763E
:10BD10002F48854204D103201290012007901CE097
:10BD200008A8807D80002B490858A84215D1012021
:10BD300007900AA80F9000200CE008A98A7D0C212A
:10BD40004143224BC918C97A8A4202D108AA5075C8
:10BD500002E0401C0028F0D000BF0798012820D145
:10BD60001298032806D108A9087E0321084308A9D0
:10BD700008760FE01298022806D108A9087E012152
:10BD8000084308A9087605E008A9087E02210843AF
:10BD900008A908760AA80F900EA90DA8139AFDF716
:10BDA000FFFA00BFFAE60000802C0020E4FF01004B
:10BDB00099050000E8210020702B0020F0210020D0
:10BDC000342C00208C2C0020502C0020742C0020BF
:10BDD00028FF0100542B002070B505460C4600BF1B
:10BDE00029480078002801D1284870BD00BF002DE7
:10BDF00002D12648801DF8E7002C02D12348801D7F
:10BE0000F3E72068002802D12048801DEDE7204894
:10BE10000068002834D11E49206808600522611D91
:10BE20001B48001DFCF7D2F9207919498872084691
:10BE3000007A4008400008720846007A02218843D0
:10BE4000801C134908720846007A0421884310496F
:10BE500008720846C07940084000401CC871084676
:10BE6000C07902218843801C0949C8710846C079FD
:10BE7000042188430649C87100202870002601E08B
:10BE8000024E361F3046B0E7F42100200880000043
:10BE9000802C0020014614480078144A1278904201
:10BEA0001DD011480078401C0F4A107010460078D1
:10BEB000022801D1002010700B48007880000C4A45
:10BEC000105808600B4A086812688018094A106008
:10BED000104600680002000A106001207047002030
:10BEE000086000BFFAE700005C2200205D2200200D
:10BEF000542200205022002010B50D48006808216F
:10BF00000840002810D10B480068401C094908600F
:10BF100000F0DCFC002802D1FEF7F4FD06E0064844
:10BF2000007802F071FF01E001F09EFC10BD0000FE
:10BF3000202200201022002004220020F0B5034619
:10BF4000002426E0164E366824277E43154F3F68AE
:10BF5000F01946689E4203D94668F61A46601DE00D
:10BF600046689B1B466834190026466006750C4ED1
:10BF700035680B4F066A3E600669002E08D00E1920
:10BF80003602360A86600669C66016680662156063
:10BF900000BF03480068401C0028D3D100BFF0BD9B
:10BFA0004C2200204022002001468A68C868801A7E
:10BFB000704701468A68C868801A704710B5044601
:10BFC000002C02D0112C08D100E00AE006480068DD
:10BFD000082108430449086003E02046FDF730FAD1
:10BFE00000BF00BF10BD000020220020F8B50746AA
:10BFF0000D461446069E012D06D0022D16D0032DA7
:10C0000023D0042D42D12FE0012021490870002CBB
:10C0100005D12049087020A0FCF756FE05E000205D
:10C020001C49087022A0FCF74FFE2FE00120264992
:10C030000870002C05D12549087025A0FCF744FEA6
:10C0400002E000202149087020E001202649087004
:10C05000002C05D12549087025A0FCF735FE02E02B
:10C0600000202249087011E0012027490870002CA7
:10C0700005D12649087026A0FCF726FE05E0002021
:10C080002249087029A0FCF71FFE00BF00BFF8BDC1
:10C090007C210020782100200A20666C61736820D2
:10C0A00073746F72652073756363657373200A0020
:10C0B0000A20666C6173682073746F726520666114
:10C0C000696C200A000000007D21002079210020F9
:10C0D0000A20666C617368206C6F616420737563FD
:10C0E00063657373200A00007E2100207A210020FE
:10C0F0000A20666C61736820636C656172207375D9
:10C100006363657373200A007F2100207B21002078
:10C110000A20666C617368207570646174652073B1
:10C12000756363657373200A000000000A20666C63
:10C1300061736820757064617465206661696C2044
:10C140000A0000007CB52821684681800421C18056
:10C150000B4800900B49684602F06EFA044600BF97
:10C16000002CFDD100BF2546002D06D000BF06A241
:10C1700052212846FDF7F6F800BF00BF7CBD000045
:10C18000EDBF01006C2100202E2E5C2E2E5C2E2E89
:10C190005C666C6173682E630000000010B50C488B
:10C1A0000068401C0A49086003280DD0094800783F
:10C1B000022804D00748007802F026FE07E006486F
:10C1C000007803F025F802E00D20FDF739F910BDE5
:10C1D00014220020042200200522002010B50A4865
:10C1E0000078012804D0022808D0032809D102E0F1
:10C1F00002F0ACFF06E0FFF77FFE03E002F0FCFF79
:10C2000000E000BF00BF10BD0422002070B504464E
:10C21000204628DF0546FFF7D1FE70BDF8B504467D
:10C220000D46164632462946204629DF0746FFF7C7
:10C23000C5FEF8BD70B504460D46E0B2FDF71CFA28
:10C24000204670BD10B5002823D0124B0022001FDD
:10C25000196803E0814203D80A4649680029F9D1E8
:10C26000002A0AD01368841A9C4204D10068181866
:10C270001060104602E0506000E01860002907D00E
:10C2800002680B1A934203D10B68D2180260496806
:10C29000416010BD8C2200203EB500BF684600788A
:10C2A00001090901491C009168460078F021884382
:10C2B0001030009000BF062217A168467CDF0446BC
:10C2C00000BF2546002D07D000BF15A2FF211B315E
:10C2D0002846FDF747F800BF00BF002001900290FC
:10C2E000A02168468180C821C18000210181FF21F1
:10C2F0009131418101A87ADF044600BF2546002D17
:10C3000007D000BF06A2FF2129312846FDF72AF8F1
:10C3100000BF00BF3EBD0000576543686174000068
:10C320002E2E5C2E2E5C2E2E5C6D61696E2E6300AF
:10C330000146002070470246002070470246002058
:10C3400070470000F8B50546002700200090002641
:10C35000687824214843334940184068002827D092
:10C3600068780C21484330494018807A8021084081
:10C3700080281DD168780C2148432B494018807AC9
:10C3800040210840402813D068782421484325499B
:10C390004018074608376878242148432149401847
:10C3A000808880B200906878242148431D490E5847
:10C3B00069780C2251431C4A89180889334639464A
:10C3C000009AA9DF04460B2C0BD1012669780C22B8
:10C3D0005143154A8918088933463946009AA9DF1E
:10C3E0000446002C00D0114C012E18D169780C2283
:10C3F00051430D4A891808890D4A0C21A7DF0446CC
:10C40000002C0CD00B48844208D0082C06D0801C8D
:10C41000844203D0112C01D0002400E0034C2046BC
:10C42000F8BD0000502C0020742C0020418000003A
:10C43000FFFF00000230000070B505460C46617831
:10C44000242251430D4A881838232422294602F019
:10C4500075F80646002E0FD160782421484307491D
:10C4600040184068401C002806D100216078242232
:10C470005043024A80184160304670BD502C002065
:10C48000F3B589B00C4603271A20089061780C2276
:10C4900051432E4A891808893B4608AA01A9AADFF8
:10C4A0000646002E4FD1617824225143284A89182C
:10C4B0000846083069460A8C01A9FBF7B2FE00283D
:10C4C00012D160780C21484320494018807A02211B
:10C4D0000840022837D06178242251431C4A88182A
:10C4E0002421FBF78CFE2EE0607824214843184974
:10C4F00040184068002801D0164D00E0164D6078C5
:10C500002421484312490F506946098C607824223F
:10C5100050430F4A801841606178242251430C4AED
:10C5200089180846083069460A8C01A9FBF74EFEB7
:10C53000607824225043064A81183823242209981F
:10C54000A847064600BF00200BB0F0BD742C0020A9
:10C55000502C00207DE8010051E7010070B5054630
:10C560002846FFF7EFFE0446002C02D100BF00BFB3
:10C570000446204670BD70B505460E463146284635
:10C58000FFF75AFF0446002C02D100BF00BF04464B
:10C59000204670BD70B505460E4631462846FFF769
:10C5A0006FFF0446002C02D100BF00BF04462046A6
:10C5B00070BD000038B50546002002E03021295446
:10C5C000401C0428FADB00241EE01148025D11A182
:10C5D0006846FCF789FB68464078002809D130217D
:10C5E0006000001D2954684601786000401D2954F0
:10C5F00009E0684601786000001D295468464178CA
:10C600006000401D2954641C062CDEDB38BD000090
:10C610003D21002025780000F8B50446072001F0F0
:10C6200033F90090009871DF054600BF2F46002FB8
:10C6300006D000BF0C4AD1213846FCF793FE00BF5C
:10C6400000BF0098461C062005E0411EC8B2315CC0
:10C650000522121AA1540028F7DC0098FFF7F2FD1A
:10C6600000200090F8BD000054FF0100FFB581B02C
:10C6700005460E461746002411E0385D0A21FBF7F7
:10C680006BFD601D2A5CE01D305C1018081803214A
:10C690000090FBF761FD491C04980155641C062CB1
:10C6A000EBDB05B0F0BDF8B505460E461746002495
:10C6B0000DE0305D0A21FBF74FFD201D285C0818B6
:10C6C00003210090FBF748FD491C3955641C062CDA
:10C6D000EFDBF8BD10B518480068082108400028B5
:10C6E00026D100F049F900280CD000201349086039
:10C6F00011480068012108430F490860002002F03A
:10C7000087FD17E000F0E2F8002806D000200B4972
:10C710000860022002F07CFD0CE009480068002857
:10C7200003D0032002F074FD04E002F045FD01E0B7
:10C7300002F052FD10BD000020220020082200203F
:10C740000C220020F8B529480078002800D1F8BD57
:10C7500027480068002801D1012000E0002005469C
:10C7600024480068002801D1012000E0002006468E
:10C7700000BF002D14D1684651DF0446052C01D1BD
:10C7800001250CE0002C06D000BF1B4A6521204685
:10C79000FCF7E8FD03E0164900980968884700BFE8
:10C7A000002E1AD115480088009069461448006888
:10C7B00061DF0446052C01D101260DE0002C06D0D6
:10C7C00000BF0D4A7C212046FCF7CCFD04E00C485C
:10C7D000006808490968884700BF002D02D0002E74
:10C7E00000D000E0C5E700BF00BFB0E77422002022
:10C7F0008422002080220020300002007C220020C1
:10C800007822002001464888064A1288904206DBBA
:10C810004888044A5288904201DC01207047002079
:10C82000FCE70000CC2100200C48008CC0B201289D
:10C8300012D10A48808C0007000F00280CD107484D
:10C84000806AF0210840402806D10448C06A0840A8
:10C85000002801D1012070470020FCE7C00F00F044
:10C860001948008CC0B201282CD11748808C0007D1
:10C87000000F002826D11448806AF02108400028C3
:10C8800006D11148C06A0840002801D10120704734
:10C890000D48806AF0210840102806D10A48C06A75
:10C8A0000840002801D10120F1E70748806AF02103
:10C8B0000840302806D10448C06A0840002801D149
:10C8C0000120E4E70020E2E7C00F00F0F8B51248CD
:10C8D0000078142148431049091D4518EF6801F0FC
:10C8E000E3FD00906988C919AA888918481E009933
:10C8F000FBF71CFC064609480068B04207D307480E
:10C900000068B04205D106480068002801D1012422
:10C9100000E000242046F8BDF02C0020102200206A
:10C920000C2200201348008CC0B201281FD11148EE
:10C93000808C0007000F002819D10E48806AF02172
:10C940000840A02806D10B48C06A0840002801D141
:10C95000012070470748806AF0210840D02806D19E
:10C960000448C06A0840002801D10120F1E70020F6
:10C97000EFE70000C00F00F0F8B510480078142170
:10C9800048430E49091D4518EE6801F08DFD0090E1
:10C9900069888919AA888918481E0099FBF7C6FB7F
:10C9A000074607480068002805D006480068B842D6
:10C9B00001D1012400E000242046F8BDF02C002025
:10C9C0000C2200201022002001468807800F00283A
:10C9D00001D1012070470020FCE710B50322114669
:10C9E0000A2001F081F9032211460E2001F07CF9A2
:10C9F000032211460F2001F077F903221146092086
:10CA000001F072F903221146082001F06DF910BD02
:10CA100010B555480078002863D1092001F0B6F917
:10CA2000002833D151480078062826D15049514872
:10CA3000FEF744F9022810D14B490870FF22082163
:10CA40004B48FBF7D5FB4A4801F0FCFF00204A4960
:10CA500008704AA0FCF738F915E045494548FEF74B
:10CA60002DF9032805D14049087053A0FCF72CF993
:10CA700009E000203C49087005E04FA0FCF724F9CC
:10CA80000320394908700020384908703748017878
:10CA9000384800F0ADF8012811D13648334A1278F1
:10CAA000815C4BA0FCF710F930480078401C2F49FE
:10CAB000087008460078072801DD072008704948FB
:10CAC000007801280ED100204749087047490870B6
:10CAD0000C2001F041F91E2001F074F90D2001F045
:10CAE00071F93FE00C2001F06DF90D2001F06AF9B9
:10CAF0001E2001F031F91D48007800280BD03A487B
:10CB00000078401C3849087008460078502802DD3B
:10CB100001203649087035480078012822D10D20BF
:10CB200001F01AF90C2001F04DF91E2001F04AF92C
:10CB300000200E4908702C480078401C2A490870D3
:10CB4000084600785A280DDD002008700D2001F0FD
:10CB500039F90C2001F036F91E2001F0FDF8002013
:10CB60002249087010BD00005D2100205E210020D8
:10CB70000C2000201C2A0020612100200A2054687B
:10CB800065206B657920697320756E6C6F636B65CA
:10CB900064207375636365737366756C6C792C20A0
:10CBA00077616974696E6720666F722074686520AA
:10CBB0006C6F636B200A00000A204B657920756E4C
:10CBC0006C6F636B206661696C65642E200A0000DF
:10CBD0000A20546865206B6579206973203A2564C2
:10CBE000200A00005C2100205F210020602100203D
:10CBF00070B504460D460A2001F0C8F8002801D19E
:10CC0000012600E000260E2001F0C0F8002801D126
:10CC1000012000E0002006430F2001F0B7F80028B3
:10CC200001D1012000E000200643002E03D00120A6
:10CC30002649087002E00020244908700A2001F00B
:10CC4000A5F8002808D122480078002804D1012046
:10CC50001F490870605570BD0A2001F097F801283F
:10CC600002D100201A4908700E2001F08FF8002828
:10CC70000AD118480078002806D10120154908700B
:10CC8000022060550120E6E70E2001F07FF8012820
:10CC900002D100200F4908700F2001F077F800281A
:10CCA0000AD10D480078002806D101200A490870F1
:10CCB000032060550120CEE70F2001F067F801281E
:10CCC00002D10020044908700020C4E75C21002044
:10CCD00066210020672100206821002010B55248FD
:10CCE000007800285DD1092001F050F800282DD1EE
:10CCF0004E480078062820D14D494E48FDF7DEFF0A
:10CD000002280AD14849087000204B4908704B4955
:10CD100008704B48FBF7D8FF15E045494548FDF73B
:10CD2000CDFF032805D14049087046A0FBF7CCFF92
:10CD300009E000203C49087005E042A0FBF7C4FF71
:10CD400003203949087000203849087037480178B5
:10CD50003848FFF74DFF012811D13648334A127881
:10CD6000815C40A0FBF7B0FF30480078401C2F49A1
:10CD7000087008460078072801DD07200870404841
:10CD8000007801280ED100203E4908703E49087005
:10CD90000C2000F0E1FF1E2001F014F80D2001F03E
:10CDA00011F83FE00C2001F00DF80D2001F00AF819
:10CDB0001E2000F0D1FF3548007800280BD0314804
:10CDC0000078401C2F49087008460078502802DD82
:10CDD00001202D4908702C480078012822D10D200F
:10CDE00000F0BAFF0C2000F0EDFF1E2000F0EAFF7B
:10CDF00000200E49087023480078401C2149087023
:10CE0000084600785A280DDD002008700D2000F03B
:10CE1000D9FF0C2000F0D6FF1E2000F09DFF00205F
:10CE20001949087010BD00005D210020622100201A
:10CE300014200020262A0020292000206121002023
:10CE4000A0FF01000A207375706572204B65792080
:10CE5000756E6C6F636B206661696C65642E200A69
:10CE6000000000000A205468652073757065722008
:10CE70006B6579206973203A2564200A0000000060
:10CE80005C21002063210020642100205E2100201D
:10CE900010B50D2000F00AFF0C2000F007FF1E2047
:10CEA00000F004FF0D2000F085FF0C2000F082FF51
:10CEB0001E2000F049FF10BDFEB52B480068019010
:10CEC0002A480078009040E00098C000284909688E
:10CED0004418257835E01820684361680F18681CED
:10CEE000C5B2A078A84200D100253878022802D027
:10CEF000032823D10EE02421786848431D4909689E
:10CF00004618307D002804D0786802F0B5FA002079
:10CF1000307514E00CE01449096824225143154A85
:10CF200012688818002101750F4A016A116000BF5C
:10CF30000D480068401C0028EDD100E000BF00BF94
:10CF400000BF6078A842C6D100BF0098411EC9B298
:10CF500000910028B8D1044801680198814201D0AD
:10CF60000120FEBD0020FCE74C22002044220020CE
:10CF70004822002040220020FEB5074643480068B2
:10CF8000029043480078019071E00198C000414947
:10CF90000968451863E0781C002807D03E46242025
:10CFA00070433D4909684418276A29E02978182305
:10CFB00059436A6850182978491C29702978AA7839
:10CFC000914201D100212970466824217143324ADF
:10CFD00012688C180178012902D1217D002900D026
:10CFE0003DE08168A160C168E1600169216141693A
:10CFF000E1612A490978002901D00021A16000BF20
:10D000002749A0680968401A0002000A2549884299
:10D0100008D22349A068096802F04AF9E16840187B
:10D02000606011E01E48A168006802F041F90090BC
:10D03000E1680098814204D9E1680098081A6060AC
:10D0400001E00020606000BF0020A060E0600120DF
:10D050002075801E2062304602F0A0F900BF781CC7
:10D06000002898D128786978884294D100BF019827
:10D07000411EC9B20191002887D104480168029875
:10D08000814201D00120FEBD0020FCE74C2200209F
:10D090004422002048220020402200206522002057
:10D0A00050220020FFFF7F008EB0FFF7F1FEFBF75C
:10D0B000D5FBFD49FDA0FBF707FEFFF78EFC00F056
:10D0C0004EFC02F0C9FBFCF7ABFE3846FEF740F918
:10D0D000FFF7E2F8F748FFF79FFAFCF7F5F801F0E1
:10D0E0003BFEFDF7B3FEFFF72DF802F029FD02F03D
:10D0F00051FDFCF7F5FA0420FCF7C0FC044600BF24
:10D100002546002D06D000BFEBA2EF492846FCF7CC
:10D1100029F900BF00BFED48FFF74CFAEB49ECA03E
:10D12000FBF7D2FDEF4801F0CBFCEE480078FF287A
:10D1300007D1002003E03021EA4A1154401C0C289A
:10D14000F9DBE849E8A0FBF7BFFDEF4801F046FC3A
:10D15000ED480078FF2807D1002003E03021EA4A9B
:10D160001154401C0828F9DBE749E8A0FBF7ACFDA7
:10D1700000BF02F0D5FCED480078012870D1EC49E1
:10D18000ECA0FBF7A1FDE94806C8EF4801F0E6FB7B
:10D19000ED49EEA0FBF798FDEB480078302872D1FE
:10D1A000E94840787828FAD1E74880783128F6D1E4
:10D1B000E548C0783128F2D1EB4800780128EED15B
:10D1C0000020E9490870FBF793FFE8480078002841
:10D1D00006D100F055FD81004018E549088003E0C4
:10D1E00019204001E24908807D21C900E0480088FB
:10D1F000FAF7B2FF3030DF4948717D21C900DC48C1
:10D200000088FAF7A9FF0D4664212846FAF7A4FF23
:10D210003030D84988716421D5480088FAF79CFFDE
:10D220000D460A212846FAF797FF3030D149C871D8
:10D230000A21CF480088FAF78FFF3031C8B2CD49B4
:10D240000872012000F098FD002813D10B2000F097
:10D2500093FD00280ED13220C6494872002006E016
:10D260004BE23022C34B01460A315A54401C152868
:10D27000F7DBC2E03120BF494872BF48007801287F
:10D280007ED1002007E0C8E096490A5CB94B014610
:10D290000A315A54401C0B28F6DB0A220023B749F6
:10D2A00003C9FAF76DFF30201018B249887764225D
:10D2B0000023B24903C9FAF763FF154619460A224B
:10D2C00000232846FAF75CFF30214018A949487727
:10D2D000AB4A0023A94903C9FAF752FF154619467C
:10D2E000642200232846FAF74BFF30214018A14959
:10D2F0000877A44A0023A14903C9FAF741FF15465C
:10D3000019469F4A00232846FAF73AFF3021401871
:10D310009849C8769C4A0023984903C9FAF730FF18
:10D3200015461946974A00232846FAF729FF302167
:10D33000401890498876954A0023904903C9FAF726
:10D340001FFF15461946904A00232846FAF718FF92
:10D3500030214018874948768D4A0023874903C900
:10D36000FAF70EFF15461946884A00232846FAF7B1
:10D3700007FF302140187F490876864A002300E0E5
:10D3800031E07E4903C9FAF7FBFE15461946804A8B
:10D3900000232846FAF7F4FE302140187549C87575
:10D3A0007D4A0023754903C9FAF7EAFE1546194676
:10D3B000784A00232846FAF7E3FE302140186D49E9
:10D3C0008875764A02236D4903C9FAF7D9FE1546D6
:10D3D0001946714A00232846FAF7D2FE3021401838
:10D3E0006449487509E0002005E03022614B0146A0
:10D3F0000A315A54401C1528F7DB1F2201A95D4849
:10D4000001F022FC6846427901A96548FCF740FF1B
:10D4100001A964A0FBF758FC00BF4B4800783028F6
:10D4200041D14948407878283DD147488078312813
:10D4300039D14548C078322835D14B480078012889
:10D4400031D100204849087000BF05E03E4A011D67
:10D45000515C244A1154401C0B28F7DB002006E0E5
:10D46000394A01460F31515C534A1154401C0D2872
:10D47000F6DB254B0F4A50491A48FFF7F7F82249C7
:10D480004EA0FBF721FC204801F0DCFA154801F022
:10D490004BFB052201A94F4801F0D6FB68464279B3
:10D4A00001A93F4898E0AEE0F42000200A2025734F
:10D4B000200A00003D2100202E2E5C2E2E5C2E2EF8
:10D4C0005C6D61696E2E63003D030000B022002098
:10D4D0000A2073657373696F6E5F6B65793A2573A4
:10D4E000200A00001C2000200A20666C617368205E
:10D4F000726561642070686F6E6520646174613A62
:10D500002573200A000000000C2000200A20666C11
:10D5100061736820726561642070617373776F72E4
:10D520006420646174613A2573200A00542100204C
:10D53000F42800200A2072656365697665206461BD
:10D5400074613A2573200A00C02200200A20726507
:10D55000636569766520506C61696E646174613AD7
:10D560002573200A000000003C2100201321002028
:10D57000F22000202A200020152100203021002048
:10D58000E803000010270000A086010040420F00C1
:10D590008096980000E1F50500CA9A3B00E40B5420
:10D5A000942200200A2073656E6420646174613ADD
:10D5B0002573200A00000000FD2200200A2070616F
:10D5C0007373776F726420646174613A2573200A03
:10D5D000000000005C200020FCF75AFE01A97A48F8
:10D5E000FBF772FB0021794A1160516001207849F4
:10D5F00008700020774908700220774908700120E0
:10D600007649087000BF7648007830283CD17448CD
:10D610004078782838D172488078312834D17048E1
:10D62000C078332830D16F48007801282CD10020F1
:10D630006C49087000BF05E0694A011D515C6A4AE7
:10D640001154401C0D28F7DB674968A0FBF73CFB31
:10D650006E4A6F496448FFF726F86C496DA0FBF7E6
:10D6600033FB052201A9724801F0EEFA68464279BF
:10D6700001A97048FCF70CFE01A95348FBF724FBF5
:10D6800001206D49087000BF55480078302825D129
:10D6900053484078782821D15148807831281DD1CD
:10D6A0004F48C078342819D14E480078012815D148
:10D6B00000204C490870052201A9604801F0C4FA15
:10D6C0006846427901A95B48FCF7E2FD01A93E48A2
:10D6D000FBF7FAFA01205A49087000BF00205949A7
:10D6E000087048687821FAF78AFD32213C48FAF739
:10D6F00086FD78215448FAF782FD544800780028C6
:10D7000031D153480078012814D100F035FB0028AE
:10D7100010D10B2000F030FB00280BD146480078D8
:10D72000012802D1FFF7DAFA01E0FFF771F90020D2
:10D730004749087047480078002814D026480078E8
:10D74000022801D100F020F923480078012801D1F6
:10D7500000F01AF920480078032801D100F014F9EC
:10D7600000203C4908701C480078002828D10B2074
:10D7700000F002FB00281CD1012000F0FDFA002877
:10D7800017D101203449087034480078012817D196
:10D7900010490870082000F0EFFA012810D12B483A
:10D7A000007800280CD101202D4908702749087005
:10D7B00006E00020284908702849087029490870A7
:10D7C00000F04EFDD5E40000A4D50100302100207A
:10D7D00061210020152100205D210020282000204B
:10D7E000C02200203C2100200A2300200A2072656C
:10D7F00063656976652073757065722074696D65FF
:10D80000206E756D3A2573200A0000001420002058
:10D810003D2100200A20737570657220706173735A
:10D82000776F726420646174613A2573200A000086
:10D830008E2000209422002029200020C0200020DB
:10D840000E21002054210020F42800201321002064
:10D850000C2100200D21002010210020112100208A
:10D86000122100201421002010B50548006808216D
:10D870008843034908600348007801F0C5FA10BDE9
:10D880002022002004220020F0B50B30C108C9007E
:10D89000144F0026144A0FE003688B420BD38B42CF
:10D8A00005D95C1A4318456830C3083B00E043685B
:10D8B000136002C004E0021D10680028ECD130465D
:10D8C000002803D13868002801D00020F0BD064AA6
:10D8D00006481060064A121AD208D20044C001203D
:10D8E0003860D7E7902200208C220020FC2D0020F9
:10D8F000F8350020F8B505460E4614462879801CF8
:10D90000C7B22078801CC0191F2801DD0C20F8BD8B
:10D91000781CC1B22278501C2070B154FF212278AB
:10D92000501C2070B15422789119288801F0E6FF2C
:10D93000217840182070A88800280EDDA8680028EB
:10D9400001D10720E3E7AA8823789819A968FAF794
:10D950003DFC20782979401820700020D7E710B5C9
:10D96000042000F0ACF9032000F0A9F9022000F037
:10D97000A6F9042000F0F8F9032000F0F5F90220E0
:10D9800000F0F2F910BD000010B50446022C5ED183
:10D990007B480078401C7A490870084600780328C4
:10D9A00004DB0B2000F0FCF9002830D1744800782B
:10D9B000022803DA1E2000F00DFA06E07048007815
:10D9C000032802DA1E2000F0CFF90C2000F0CCF979
:10D9D0000D2000F0FFF90B2000F0E2F9002809D13A
:10D9E000032000F0C1F9042000F0F4F9022000F057
:10D9F000F1F908E0042000F0B7F9032000F0B4F9D1
:10DA0000022000F0B1F902205E490870B7E05E48DC
:10DA10000078012801D15D4908700C2000F0DAF986
:10DA20000D2000F0D7F9042000F09EF9032000F04B
:10DA30009BF9022000F098F955A0FBF745F900206A
:10DA40004F4908704F4908705649086097E0012C0B
:10DA500055D155480078401C534908700846007855
:10DA600003282ADB0C2000F0B5F90D2000F0B2F9F4
:10DA7000042000F079F9032000F076F9022000F08C
:10DA800073F949480078042803DA1E2000F0A2F94F
:10DA900075E045480078052803DA1E2000F064F997
:10DAA0006DE0002040490870364908703FA0FBF740
:10DAB0000BF900203B49086061E00C2000F054F9AC
:10DAC0000D2000F087F9042000F04EF9032000F04B
:10DAD00081F9022000F07EF933480078022803DA49
